:060000000C9479000C9441
:10000600B4010C9400000C9400000C9400000C94B5
:1000160000000C9400000C9400000C94AC010C94AD
:1000260000000C9400000C94D5000C9400000C9475
:1000360000000C9400000C9400000C9400000C943A
:1000460000000C9400000C9400000C940000102793
:10005600E80364000A00010000100001100001001E
:100066000000F000BD00464F4244004531374200D3
:10007600443233390043324636004233423400417B
:100086003437320039353330003835454400373699
:100096004142003637363900436F756E7465723AE1
:1000A6002000050060016C00050065017100050077
:1000B6006A01760005006F017B000500740180006F
:1000C60005007901850005007E018A00050083018F
:1000D6008F0005008801940005008D0199000A0033
:1000E60092019E000600040066000000F894EE27C8
:1000F600ECBBF1E0FBBFEBBFE5BFF8E1F1BDE1BD55
:100106008DE0A2E0BB27ED938A95E9F780E094E0C5
:10011600A0E6ED930197E9F7E8EAF0E0859195917D
:10012600009761F0A591B59105901590BF01F0017A
:1001360005900D920197E1F7FB01F0CFEFE5EDBFDA
:10014600E4E0EEBFC0E6D1E00C94F501E881E7B942
:100156008BE18A95F1F7369A349BFECF349AE4B157
:10016600F5B104C05D9BFECFE881ECB921960895F8
:100176001A930A93EA81FB81FA93EA930E94B002EA
:100186001E2F00E0011750F4AA81BB81EE27A00FB5
:10019600BE1FEC91EA93E6DF0F5FF4CF1981088169
:1001A600249608950E94BA021A931CB11C3609F4CB
:1001B600C09A1D3609F4C19A1E3609F4C29A1F3632
:1001C60009F4C39A153709F4C49A193609F4C59A7D
:1001D600163709F4C69A183709F4C79A193709F475
:1001E600A99A113609F4C098123609F4C198133643
:1001F60009F4C298143609F4C398153609F4C4985C
:10020600163609F4C598173609F4C698183609F44F
:10021600C7981A3609F4A998113410F01B3528F03E
:10022600103310F01A3308F007C0F20131962F018F
:100236003197E454FE4F1083E4E0F0E0E415F50551
:1002460011F00C94AA010E94C802E0E6F1E00E94B7
:10025600CD0231F4E0EFF0E03F01EDEBF0E04F01CD
:100266000E94C802E5E6F1E00E94CD0231F4E1EE1B
:10027600F0E03F01EBE7F0E04F010E94C802EAE63A
:10028600F1E00E94CD0231F4E2EDF0E03F01E9E356
:10029600F0E04F010E94C802EFE6F1E00E94CD02B5
:1002A60031F4E2ECF0E03F01E6EFF0E04F010E94AE
:1002B600C802E4E7F1E00E94CD0231F4E3EBF0E09E
:1002C6003F01E4EBF0E04F010E94C802E9E7F1E0EC
:1002D6000E94CD0231F4E4EAF0E03F01E2E7F0E00B
:1002E6004F010E94C802EEE7F1E00E94CD0231F410
:1002F600E5E9F0E03F01E0E3F0E04F010E94C802CB
:10030600E3E8F1E00E94CD0231F4E5E8F0E03F01D8
:10031600EDEEF0E04F010E94C802E8E8F1E00E942D
:10032600CD0231F4E6E7F0E03F01EBEAF0E04F0101
:100336000E94C802EDE8F1E00E94CD0231F4E7E642
:10034600F0E03F01E9E6F0E04F014424552419911D
:100356003BC06DBC8CBCA89B02C0A89801C0A89AE3
:1003660018950E94BA020E94D3020E942803E093C5
:10037600AC01F093AD016093AE017093AF010E94A2
:10038600D3020E944D03E093B001F093B101609354
:10039600B2017093B301A8EBB1E00E945103EF5F85
:1003A600FF4F6F4F7F4F0E945603E2E9F1E0FA9349
:1003B600EA93DEDEE091AC010E94E002E091B0013A
:1003C6000E94E0020E94E402E991EFBFF991E991EF
:1003D600B991A9919991899179916991F990199019
:1003E60009901895E0E0EBBBEFEFEABBE0E0E8BB75
:1003F600EFEFE7BBE0E0E5BBEFEFE4BBE0E0E2BB3D
:10040600E2E0E1BBE0E0E3BFE2BFECBFEFBDE5E069
:10041600EEBDE4E0E9BFE0E0E7BDE6BDEBBDEABD69
:10042600E9BDE8BD6DBC8CBCE2BDE5BDE4BDE3BD88
:10043600EBB7E064EBBFE2E0E5BFE0E0E4BFE0E499
:10044600EABFE0E0E5BFE4BFE7B9E3E8E6B9E0E02C
:10045600EBB9E8E9EAB9E6E8E0BDE0E0E0BDE3E3F0
:10046600E9B9E0E8E8B9E0E0E0BFEDB9E6BF7894C5
:10047600E0E0EA936BDE66277727E0939C01F09332
:100486009D0160939E0170939F01A8E8B3E180E00F
:1004960090E00E940803DF01CB01EFEFF3E060E09C
:1004A60070E00E942803E093A001F093A1016093FD
:1004B600A2017093A301A091A001B091A101809126
:1004C600A2019091A3010E94EC02E093B401F09383
:1004D600B5016093B6017093B7010E94F3020E94C2
:1004E600EC02E093A401F093A5016093A60170933A
:1004F600A7010E94F302EAE0F0E060E070E00E94EB
:100506004D03E093A801F093A9016093AA017093AB
:10051600AB01E091A4010E94E002E091A8010E94D3
:10052600E0020E94E402E8ECF0E0FA93EA930E940B
:10053600FC029ECFFFCFE991F991A991B9916D91F6
:100546007191671721F46623D1F7EE270895671B8B
:10055600E1F3E1E008F4E2500895A991B991EE279C
:10056600FF276D91662311F03196FBCF08950A920D
:100576001A92FA926A937A938A939A93AA93BA935F
:10058600EA93FA93EFB7EA930895ECEBF1E0FA9366
:10059600EA930895FA93EA930E949E02E030089542
:1005A600A091B801B091B9018091BA019091BB01B7
:1005B600EAE0F0E060E070E00895E05DEA930C9414
:1005C600B500EAE0EA930E94B500EDE0EA930C94E8
:1005D600B500EAE0F0E060E070E00E9428030895CC
:1005E600A091B401B091B5018091B6019091B70187
:1005F6000895E991F991309639F080ED97E00197E9
:10060600F1F7A8953197C9F708957A9F702D6B9FDA
:10061600700DF89F700DE99F700D6A9F602D710D2A
:10062600FB9F600D711DE89F600D711D8827FA9F65
:10063600F02D610D781FEB9FF00D611D781FEA9F6D
:10064600E02DF10D681F781F08953F934F935F9338
:10065600002411244427552730E2AA0FBB1F881F08
:10066600991F001C111C441F551F0E1A1F0A460B0A
:10067600570B28F40E0E1F1E461F571F01C0A16000
:100686003A9559F7FD01BC01D001CA015F914F911E
:100696003F910895DADFFD01BC010895ED91FD91CA
:1006A6006D917D9108957E936E93FE93EE930895DA
:00000001FF
